:02000000AB282B
:0E0006008312031321088A00200882000800DC
:10001400710DF80DF90D7408F8027508031C750FBD
:10002400F902F00DF10D0F30FC00710DF80DF90D12
:100034007408701C2328F8027508031C750FF90254
:100044002828F80775080318750FF907F00DF10D46
:10005400FC0B1728701834287408F807750803185F
:08006400750FF9070000080008
:10006C00831203137408003A031D45287508003ADF
:10007C00031D4528FF30F0007F30F1009E288312CD
:10008C000313FD01F901F801710870040319003420
:10009C0071087506FA00FA1BFD09FB01F51F5B28B8
:1000AC00F409F509F40A0319F50AF11F6228F0099D
:1000BC00F109F00A0319F10A71087504FA00FA1B28
:1000CC0077280A207B188A28FD1F0034F009F109D3
:1000DC00F00A0319F10AF809F909F80A0319F90ADF
:1000EC000034F51F8628F11B82287108F90070086E
:1000FC00F800F101F0016A28F101F001F00A003476
:10010C00F109F009FB0A6728F80A0319F90A7408BF
:10011C007802031D6A2875087902031D6A28F90103
:10012C00F801F00A0319F10AF11F6A280000FF34E4
:02013C000800B9
:10013E0003208A110A128000840AA00A0319A10A58
:08014E00F003031D9F280800C7
:100156008316031386018701880187160717831202
:100166008601870188010F30A2000030A30080308D
:100176002306F00080307002031DC32800302202DF
:10018600031C5329A401A50180302506F000803008
:100196007002031DD0283230240203184E29871E10
:1001A600062986018801071FEF28081408161F3044
:1001B600FB007130FC001E30FD00FD0BE028FC0B3F
:1001C600E028FB0BE028000008128816071FEE281F
:1001D600871EEE28E9280529881588141F30FB009C
:1001E6007130FC001E30FD00FD0BF728FC0BF728D4
:1001F600FB0BF728000088100815071B0529871E2A
:1002060005290029D228880188150815803023067B
:10021600F00080307002031D1229043022020318F8
:1002260018298801881588140811870187148715ED
:100236000A30F4000030F5002208F0002308F1002F
:1002460036207808F0007908F100700886001A3028
:10025600FC00F830FD00FD0B2E29FC0B2E290000BA
:100266008701071407150A30F4000030F50022084C
:10027600F0002308F1003620700886001A30FC00D2
:10028600F830FD00FD0B4529FC0B45290000A40AAA
:100296000319A50AC7280130A202031CA303BA2822
:1002A600881188101730A2000030A3008030230682
:1002B600F00080307002031D622900302202031C08
:1002C600F029A401A50180302506F00080307002D7
:1002D600031D6F29323024020318EB29871EA52936
:1002E60086018801071F8E29081408161F30FB0097
:1002F6007130FC001E30FD00FD0B7F29FC0B7F29B1
:10030600FB0B7F29000008128816071F8D29871E00
:100316008D298829A429881588141F30FB0071307F
:10032600FC001E30FD00FD0B9629FC0B9629FB0BED
:100336009629000088100815071BA429871EA429E2
:100346009F29712988010814881680302306F00039
:1003560080307002031DB129043022020318B5292A
:10036600081688128701871487150A30F4000030B2
:10037600F5002208F0002308F10036207808F00086
:100386007908F100700886001A30FC00F830FD008C
:10039600FD0BCB29FC0BCB290000870107140715A1
:1003A6000A30F4000030F5002208F0002308F100BE
:1003B6003620700886001A30FC00F830FD00FD0B70
:1003C600E229FC0BE2290000A40A0319A50A662902
:1003D6000130A202031CA303592908100812B628EB
:0203E600F329F9
:02400E004A2F37
:00000001FF
